:020000040000FA
:1000000000000120FD040000150500001705000098
:10001000190500001B0500001D0500000000000080
:100020000000000000000000000000001F050000AC
:100030002105000000000000230500002505000048
:10004000270500002B0500002F05000033050000E8
:10005000370500003B0500003F0500004305000098
:10006000470500004B0500004F0500005305000048
:10007000570500005B0500005F05000063050000F8
:1000800067050000FF050000FF050000FF050000F8
:10009000FF050000FF050000FF050000FF05000050
:1000A0006B0500006F050000730500007705000078
:1000B0007B0500007F050000830500008705000028
:1000C0008B0500008F0500009305000097050000D8
:1000D0009B0500009F050000A3050000A705000088
:1000E000AB050000AF050000B3050000FF050000F0
:1000F000B7050000BB050000BF050000C3050000F8
:10010000C7050000CB050000CF050000D3050000A7
:10011000D7050000DB050000DF050000E305000057
:10012000E7050000FF050000FF050000FF050000D7
:10013000FF050000FF050000FF050000FF050000AF
:10014000FF050000FF050000FF050000FF0500009F
:100150003964000065680000FF0500008D6800003C
:10016000FF050000FF050000FF050000EB05000093
:10017000EF050000F3050000F7050000FF05000093
:10018000FB050000FF050000FF050000FF05000063
:10019000FF050000FF050000FF050000FF0500004F
:1001A000FF050000C1690000FF050000796A00003A
:1001B000FF050000FF050000FF050000FF0500002F
:1001C000FF050000FF050000FF050000FF0500001F
:1001D000FF050000FF050000FF050000FF0500000F
:1001E000FF050000FF050000FF050000FF050000FF
:1003F000FF050000FF050000FF050000FFFFFFFFF5
:10040000FFFFFFFFFFFFFFFFFFFFFFFFFEFFFFFFFD
:1004100000F002F800F062F80AA090E8000C8244B4
:100420008344AAF10107DA4501D100F057F8AFF291
:10043000090EBAE80F0013F0010F18BFFB1A43F0C2
:100440000103184760C8000090C800000A444FF03C
:10045000000C10F8013B13F0070408BF10F8014B23
:100460001D1108BF10F8015B641E05D010F8016B68
:10047000641E01F8016BF9D113F0080F1EBF10F8CC
:10048000014BAD1C0C1B09D16D1E58BF01F801CBEF
:10049000FAD505E014F8016B01F8016B6D1EF9D572
:1004A0009142D6D370470000002300240025002687
:1004B000103A28BF78C1FBD8520728BF30C148BFC7
:1004C0000B607047642900F0C781782900F0008232
:1004D000002070471FB51FBD10B510BDDFF80CD050
:1004E000FFF7F8FF0AF070FB00F062FB000001204C
:1004F00003B4FFF7F1FF03BC00F064FB72B64048A1
:10050000404901600A6882F308883F48804762B624
:100510003E480047FEE7FEE7FEE7FEE7FEE7FEE7B0
:10052000FEE7FEE7FEE73A4800473A4800473A4808
:1005300000473A4800473A4800473A4800473A4897
:1005400000473A4800473A4800473A4800473A4887
:1005500000473A4800473A4800473A4800473A4877
:1005600000473A4800473A4800473A4800473A4867
:1005700000473A4800473A4800473A4800473A4857
:100580000047394800473848004737480047364851
:10059000004735480047354800473548004735484B
:1005A0000047344800473348004732480047314845
:1005B000004730480047304800473048004730483F
:1005C000004730480047304800473048004730482F
:1005D000004730480047304800473048004730481F
:1005E000004730480047304800473048004730480F
:1005F0000047304800473048004730480047FEE792
:1006000008ED00E00000000025A300001104000038
:10061000CD1B0000511C0000611C0000711C00007B
:10062000811C0000911C0000A11C0000B11C0000F6
:10063000C11C0000D11C0000F11B0000011C0000C7
:10064000111C0000211C0000311C0000411C000096
:10065000FF050000154B00002D4B0000FF050000BA
:10066000FF050000FF050000FF050000FF0500007A
:10067000FF050000FF050000FF0500008DA400003D
:10068000FF050000B1A40000FF050000D5A4000094
:10069000FF050000F9A40000FF0500001DA50000F3
:1006A000FF05000041A50000FF050000FF05000058
:1006B000FF050000FF050000FF050000FF0500002A
:1006C000000000000000000000000000000000002A
:1006D000000000000000000000000000000000001A
:1006E000000000000000000053EA020C00F06980E6
:1006F0002DE9F04B4FF00006002B1FBFB3FA83F536
:1007000003FA05F424FA05F65E4012BF1643B2FA66
:1007100082F502FA05F4C5F120051EBF22FA05FC98
:1007200044EA0C04203556EA044C4FEA144418BF3E
:10073000641C4FF000084FF00009904271EB030C6D
:1007400039D3002919BFB1FA81F701FA07F6B0FAD7
:1007500080F700FA07F6C7F120071EBF20FA07FC52
:1007600046EA0C062037B6FBF4FCA7EB0507103F62
:1007700007F01F0BCBF120060CFA0BFB2CFA06F648
:1007800044BFB3460026202FA4BF5E464FF0000BA7
:100790005BEA060C08BF4FF0010B19EB0B09ABFB32
:1007A000027C48EB0608C01B06FB02CC0BFB03CC0B
:1007B00071EB0C01C1E70B46024641464846BDE8D5
:1007C000F08B13B54FF000004FF00001AFF3008045
:1007D000BDE81C40704700000FB4044910B503AADF
:1007E000029800F0B7F910BC5DF814FBDC020020A1
:1007F0002DE9F0410E460446002020622046E168C3
:10080000884730B3252805D0D4E901219047206AD4
:10081000401CF2E7E168204600278847050018D011
:10082000A5F14100192802D820354FF4006732465F
:10083000294620462760FFF745FE40B1012804D035
:10084000F61D26F007060836D8E7361DD6E72846F7
:10085000DAE7206ABDE8F0812DE9F0410646002480
:1008600010687529314616A510D0AFF30080002816
:1008700002DA404213A507E031688A0701D512A5C4
:1008800002E0490704D511A5012401E0AFF300807F
:1008900000210A2206F1240709E0B0FBF2FCB0FBBC
:1008A000F2F302FB1C00303078541846491C002833
:1008B000F3D123462A463046BDE8F04100F0F1B8B6
:1008C000000000002D0000002B00000020000000B0
:1008D00070B504460D4621461068AFF300802188AC
:1008E000090502D50F4A7A4402E00E4A7A440E32D4
:1008F000002104F1240305E000F00F060009965DD5
:100900005E54491C0028F7D120780023000704D545
:10091000702D02D009B1022311322046BDE870408B
:1009200000F0BFB892C3000010B5431C02E010F8FD
:10093000011B71B18107FAD14FF0013202C88C1A44
:100940008C4314EAC211F9D0C01A0A0603D0C01EA3
:1009500010BDC01A10BD0A0401D0801E10BD0902CE
:10096000FCD0401E10BD032A40F2308010F0030C72
:1009700000F0158011F8013BBCF1020F624498BFF2
:1009800011F801CB00F8013B38BF11F8013BA2F18F
:10099000040298BF00F801CB38BF00F8013B11F00A
:1009A000030300F02580083AC0F0088051F8043BAA
:1009B000083A51F804CBA0E80810F5E7121D5CBF17
:1009C00051F8043B40F8043BAFF30080D20724BF4A
:1009D00011F8013B11F801CB48BF11F8012B24BFDE
:1009E00000F8013B00F801CB48BF00F8012B70472D
:1009F00010B5203AC0F00B80B1E81850203AA0E8BA
:100A00001850B1E81850A0E81850BFF4F5AF5FEAED
:100A1000027C24BFB1E81850A0E8185044BF18C9A0
:100A200018C0BDE810405FEA827C24BF51F8043B47
:100A300040F8043B08BF7047D20728BF31F8023B9B
:100A400048BF11F8012B28BF20F8023B48BF00F82F
:100A5000012B70474FF0000200B5134694469646AE
:100A6000203922BFA0E80C50A0E80C50B1F12001C1
:100A7000BFF4F7AF090728BFA0E80C5048BF0CC06F
:100A80005DF804EB890028BF40F8042B08BF7047CD
:100A900048BF20F8022B11F0804F18BF00F8012B3F
:100AA00070472DE9F0470D4699469246044600F1FD
:100AB00024080168880604D5E06921F0100121604E
:100AC00000E00120A84201DD471B00E00027A169EA
:100AD0007A1902EB0900081AA0612078C00602D436
:100AE0002046AFF30080002608E0D4E901211AF87F
:100AF00006009047206A401C761C20624E45F4DBBD
:100B00002078C0060AD52046AFF3008006E0D4E97D
:100B1000012130209047206A401C2062381EA7F136
:100B20000107F4DC07E0D4E9012118F8050090473B
:100B3000206A401C2062281EA5F10105F3DC204636
:100B4000AFF300802078000602D50220BDE8F087D0
:100B50000120FBE7074B70B50D467B4400F011F810
:100B60000446284600F020F810B14FF0FF3070BD69
:100B7000204670BD9B9F000001694A1C02610878F5
:100B8000704700B58FB0CDE90131002105910549CD
:100B90007944CDE9031011466846FFF729FE0FB0EE
:100BA00000BD0000E5FFFFFF007B00F08000704704
:100BB00010B50446AFF300802046BDE81040FFF7B3
:100BC00097BC000001491820ABBEFEE726000200DA
:100BD0007047000010B5044604B104E08F220AA15A
:100BE0000FA009F09DFD00202070032060700120FF
:100BF000A0700320E07001202071042060710020AB
:100C0000A071E071207210BD2E2E5C4472765C5390
:100C100072635C66736C5F61646331362E630000DF
:100C20004E554C4C20213D20636F6E666967000075
:100C300070B50546002406E0094850F82400A84293
:100C400000D102E0641C022CF6D300BF022C00D2BB
:100C500004E0462203A109A009F062FD204670BD10
:100C6000D0CA00002E2E5C4472765C5372635C66C0
:100C7000736C5F61646331362E630000696E737458
:100C8000616E6365203C2041525241595F53495A7D
:100C90004528735F6164633136426173657329006F
:100CA0002DE9F04106460C4604B104E04D222BA18B
:100CB00030A009F035FD3046FFF7BAFF314951F851
:100CC0002070314901EB174001680122BA401143FD
:100CD000016000BF00212D4800F0A0F8607800F00E
:100CE000030021790C2202EA810140EA01056079C2
:100CF000042801D045F01005E078602101EA401099
:100D00000543E07908B145F08005B560F06820F052
:100D10000F056079042803D0607900F003000543D3
:100D2000A07908B145F00405A07808B145F00805A0
:100D3000F560306A20F00305207800F003000543D9
:100D40003562207A20B1706A40F00800706203E0DA
:100D5000706A20F008007062BDE8F0812E2E5C44BD
:100D600072765C5372635C66736C5F616463313688
:100D70002E6300004E554C4C20213D20636F6E6663
:100D800069670000D8CA00000070044000B00B4042
:100D90002DE9F04107460D461446022D00D205E02C
:100DA00040F255120BA111A009F0BAFC04B105E004
:100DB0004FF4AB7207A115A009F0B2FC207800F047
:100DC0001F06207908B146F0400647F82560BDE8C7
:100DD000F08100002E2E5C4472765C5372635C6678
:100DE000736C5F61646331362E6300006368616E0B
:100DF0006E656C47726F7570203C204144435F53B1
:100E000043315F434F554E54000000004E554C4C4B
:100E100020213D20636F6E6669670000436A23F0FE
:100E20000702042904D001F0030343F004031A432A
:100E30004262704700B585B00A20009000208DF80E
:100E4000040002A8FFF7C6FE00208DF80B00012069
:100E50008DF8090002A90548FFF722FF6A46002124
:100E60000248FFF795FF05B000BD000000B00B4041
:100E7000002800DD00E0404270470246106820F084
:100E800040001060106820F01F001060106801F032
:100E90001F031843106000BF106800F08000002896
:100EA000FAD0106980B270472DE9F04705460E462A
:100EB000144628460AF0F2FE824631460AF04EFFFA
:100EC000814621460AF09EFD80460AF0CBFE07B21D
:100ED0003846BDE8F087000010B505200246264BD5
:100EE00019684FF6FF031940244B0B4343EA0221D4
:100EF000214B196000BF0021592005F04FF8012156
:100F0000472005F04BF80221442005F047F840F255
:100F1000DD21322006F070FA04F07CFE09F0F0F9D1
:100F200000F0BCFD09F0BEF801F0DAFD04F072F843
:100F300000F02EFA03F0DEFB02F006F805F05AFA94
:100F400009F0D6FBFFF776FF0D4805F0C5F809F06C
:100F500039FF00F047F800BF04F08CFF0028FBD1F8
:100F600009F0BCFF03F0D0FA09F050FF05F02AF8B1
:100F700005F066F810BD00000CED00E00000FA0579
:100F80000000FF1F10B500BF4FF092700E4948647B
:100F900000BF0E4800F0D6FC0C4908680C490860F8
:100FA00000BF0C49087900F037FA0A49C87901F105
:100FB0000802002100F0FCF9074800F057FD07483F
:100FC0000749086010BD0000008004406CC00000AC
:100FD000EC02002058C0000064C0000000E1F505EC
:100FE000D80200201CB509480068019001AA02211E
:100FF000074805F09DFD0548001D006800906A4601
:101000000321034805F094FD1CBD0000C8CA000080
:1010100000A0044010B5D74800F008FAD548401C9D
:1010200000F004FAD348801C00F000FAD148C01C3C
:1010300000F0FCF9CF48001D00F0F8F9072200216C
:10104000CD4805F0AEFD01220C21CB4805F0A9FDED
:1010500001220F21C84805F0A4FD01221A21C6482B
:1010600005F09FFD01221B21C34805F09AFD0122D6
:101070001C21C14805F095FD01221D21BE4805F047
:1010800090FD07220321BC4805F08BFD01220421BD
:10109000B94805F086FD01220521B74805F081FD1C
:1010A00006220021B54805F07CFD06220121B34847
:1010B00005F077FD00220A21B04805F072FD0022FC
:1010C0000B21AE4805F06DFD01221021AB4805F063
:1010D00068FD01221121A94805F063FD06221221B5
:1010E000A64805F05EFD06221321A44805F059FD2F
:1010F000A248C06CA2490840A049C864012214213A
:101100009E4805F04EFD012215219C4805F049FD41
:1011100001221621994805F044FD01221721974824
:1011200005F03FFD00220421944805F03AFD00221D
:101130000521924805F035FD002206218F4805F073
:1011400030FD002207218D4805F02BFD01220821EA
:101150008A4805F026FD01220921884805F021FD75
:1011600001221E21874805F0D5FC04220121854873
:1011700005F017FD8348406881495039084040F028
:1011800050008049486001220A217E4805F009FD8F
:1011900001220B217B4805F004FD01220C21794836
:1011A00005F0FFFC01220D21764805F0FAFC012232
:1011B0000E21744805F0F5FC01220F21714805F05D
:1011C000F0FC012210216F4805F0EBFC01221121F7
:1011D0006C4805F0E6FC042202216A4805F0E1FCB7
:1011E0006848806866495039084040F050006549B9
:1011F000886004220321634805F0D3FC6148C0687D
:101200005F495039084040F050005E49C8600422F0
:1012100011465C4805F0C5FC5A48006958495039E8
:10122000084040F050005749086101220621554806
:1012300005F0B7FC01220721524805F0B2FC5148E5
:10124000C0694F49C91C0840401C4E49C861012271
:1012500008214C4805F0A5FC01220921494805F068
:10126000A0FC01228021484805F054FC0122052100
:10127000454805F096FC02220721434805F091FC01
:101280004148C0693E494C39084040F050003E4951
:10129000C861032218213D4805F083FC032219216F
:1012A0003A4805F07EFC01220E21374805F079FC12
:1012B0003548806B3249C91C0840401C324988635C
:1012C00001220F21304805F06CFC2F48C06B2C49DF
:1012D000C91C0840401C2C49C86301220A212A4825
:1012E00005F05FFC01220B21274805F05AFC012282
:1012F0000C21254805F055FC01220D21224805F05E
:1013000050FC01220421214805F04BFC1F480069D4
:101310001B49C91C0840401C1C49086101220521C9
:101320001A4805F03EFC194840691549C91C084097
:10133000401C1649486101220021144805F031FC87
:1013400001221146114805F02CFC012202210F4810
:1013500005F027FC012203210C4805F022FC0122A4
:101360000A210A4805F01DFC01220921074805F061
:1013700018FC10BD090038100090044000A0044083
:10138000FBFFFFFE00B0044000C0044000D004405A
:1013900008B501208DF8000000208DF801006A4694
:1013A0000521024803F0D4F908BD0000C0F00F4049
:1013B00070B506460D46144604B105E040F26C6275
:1013C0000CA112A009F0ACF9304600F0F1FA214668
:1013D000284600F0FBFA0F48007820F0C0000D49C5
:1013E000087000BF0B488079C0F381000328F9D151
:1013F000002070BD2E2E5C4472765C5372635C6676
:10140000736C5F636C6F636B2E630000636F6E665B
:1014100069670000004006400349097860F3C50190
:10142000014A11707047000000400640044A02EB78
:1014300010410A68012383401A430A607047000084
:1014400000700440044A02EB10410A680123834003
:101450001A430A607047000000700440044A02EB1F
:1014600010410A68012383401A430A607047000054
:101470000070044070B5044604B105E040F2363215
:1014800010A116A009F04CF90025607800F01F00AB
:10149000054314480571A178407961F304001149AE
:1014A000487108460079217841F0400108430D4910
:1014B000087100BF0B48807900F040000028F9D087
:1014C00070BD00002E2E5C4472765C5372635C66C5
:1014D000736C5F636C6F636B2E630000636F6E668B
:1014E000696700000040064010B515480068C0F369
:1014F000814020B102280DD003281BD117E000F055
:1015000077F9B0F5004F02D14FF4004000E0002021
:10151000044611E00B48006800B105E040F27D127E
:1015200009A10FA009F0FCF80648046804E04FF494
:101530007A7401E0002400BF00BF204610BD000007
:1015400000700440F00200202E2E5C4472765C5342
:1015500072635C66736C5F636C6F636B2E63000019
:10156000675F7874616C3332467265710000000009
:1015700010B500F067F8044634B100F075F9B4EB2B
:10158000D00F01D8204610BD0020FCE72DE9F04126
:1015900000F0ECF8044614B92046BDE8F081154887
:1015A0000078C0F3C205EC4012484078C0F3011641
:1015B0001048007B00F00107D6B1CFB9082D14D236
:1015C000DFE805F00405060708090B0F00BF00BFA0
:1015D00000BF00BF00BF640909E01420B4FBF0F4B1
:1015E00005E00C20B4FBF0F401E0002400BF00BFD4
:1015F0002046D2E70040064070B51048407800F021
:10160000020020B90D48807900F0200008B10020C8
:1016100070BD00F017F804460CB92046F8E70748FB
:10162000C078C0F341150548C078C609044800EBEE
:10163000850030F816006043EAE7000000400640ED
:1016400020CB000010B505488079C0F3001010B918
:10165000FFF79CFF10BD02480068FBE70040064012
:10166000E402002070B50546142D53D2DFE805F0E2
:101670000A0B151F295233373B52523F43474B52F7
:101680005252524F00BF00F0EFF82549496C012239
:1016900002EB1171B0FBF1F43EE000F0E5F82049F7
:1016A000496CC1F30361491CB0FBF1F434E000F074
:1016B000DBF81B49496CC1F30351491CB0FBF1F441
:1016C0002AE000F0D1F81649496CC1F30341491CE6
:1016D000B0FBF1F420E000F01FF904461CE0FFF736
:1016E00003FF044618E000F083F8044614E0FFF717
:1016F0003FFF044610E000F015F804460CE0FFF749
:101700007BFF044608E000F0CDF8044604E04FF407
:101710007A7401E0002400BF00BF204670BD0000C5
:101720000080044010B50548007800F0020008B9B8
:10173000002010BD00F004F8FBE700000040064068
:101740000748807900F0010010B90648006870472A
:101750000348007AC0F3420103480068C840F6E736
:1017600000400640E4020020E802002010B50020FE
:1017700010B1012818D10BE00E48006800B104E058
:10178000E8220DA112A008F0CBFF0A4804680DE082
:101790001248006800B104E0ED2207A110A008F093
:1017A000BFFF0E48046801E0002400BF00BF2046D0
:1017B00010BD0000EC0200202E2E5C4472765C53BB
:1017C00072635C66736C5F636C6F636B2E630000A7
:1017D000675F7874616C304672657100F0020020BA
:1017E000675F7874616C3332467265710000000087
:1017F00010B50A48007800F0800060B10848006821
:1018000000B105E040F2691206A10CA008F088FFC3
:101810000348006810BD0020FCE7000000500640AF
:10182000EC0200202E2E5C4472765C5372635C6680
:10183000736C5F636C6F636B2E630000675F78741B
:10184000616C304672657100014649F6970291421B
:1018500001D8002005E0034A914201D8012000E0B0
:101860000220704700127A0010B50D498979C1F342
:10187000810444B1012C09D0022C0AD0032C0BD1D5
:1018800000F010F80AE0FFF7B7FE07E0FFF758FF97
:1018900004E0FFF76BFF01E0002000BF00BF10BDB8
:1018A0000040064010B51048807900F0400008B9AB
:1018B000002010BD00F02CF8044604B105E040F211
:1018C00076220AA10FA008F02BFF0748007900F04C
:1018D0001F00401CB4FBF0F40348407900F01F00E7
:1018E000183044432046E4E7004006402E2E5C4476
:1018F00072765C5372635C66736C5F636C6F636B70
:101900002E6300006D6367706C6C30636C6B00005D
:1019100010B5FFF72BFF10BD10B509494968C1F399
:10192000004111B1012906D102E0FFF765FE04E094
:10193000FFF7B8FF01E0002000BF00BF10BD0000AE
:101940000080044070B504462068FFF77DFF05461F
:1019500015482279017821F00F011143017000BF71
:1019600000BF017821F0A001A2791143017000BFEE
:101970000E48407820F03C00302101EA0511084370
:101980006179084309494870607958B10648007880
:1019900000F0800030B100BF0448807900F0020000
:1019A0000028F9D070BD00000050064000400640FD
:1019B00010B5034600223AB140F2DC5100E000BF0E
:1019C000081EA1F10101FAD1002010BD70B5054635
:1019D0000C4604B105E040F2C2521BA120A008F061
:1019E0009FFE2148407820F002001F4948700846B9
:1019F000007820F0C40040F08000087000BF1A4852
:101A0000807900F01C000828F9D11748407920F0AF
:101A100040001549487100BF1348807900F020004C
:101A20000028F9D12046FFF725FD0F48407940F006
:101A300040000D49487100BF0B48807900F020003C
:101A40000028F9D0002070BD2E2E5C4472765C53C5
:101A500072635C66736C5F636C6F636B2E63000014
:101A6000636F6E666967000000400640094A41687E
:101A700051640178526861F31042064B5A6000BF0E
:101A80004178054A126861F39342034B1A6000BF24
:101A900070470000008004400070044039483A4913
:101AA00008603A4848603A4888600020C860086189
:101AB00048613848C86100208861088448843648F5
:101AC0003649086036484860364888600020C8605B
:101AD000086148612F48C8610020886108844884F3
:101AE0004FF07E5030490860304848603048886088
:101AF000002048612F484862002008612E48886114
:101B00002E48C861002008844FF07E502C490860A0
:101B10002648486026488860002048612548486279
:101B200000200861244888612448C8610020088496
:101B30004FF07E50234908601C4848601C4888606C
:101B4000002048611B484862002008611A488861EB
:101B50001A48C861002008844FF07E501A49086076
:101B60001248486012488860002048611148486265
:101B700000200861104888611048C861002008846E
:101B8000704700009A99D940280E0020000040407C
:101B9000333313400080A2449A99C9404C0E002070
:101BA000666626409A991940700E00206F12833A9B
:101BB0000000B04000007A4400803B4500803BC5F7
:101BC000980E0020C00E0020E80E002010B5074837
:101BD000406A00F0010038B10448406A40F001005A
:101BE0000249486200F07CF810BD0000008000400F
:101BF00010B50249886A01F0FFF810BDC810002036
:101C000010B50249C86A01F0F7F810BDC8100020ED
:101C100010B50249086B01F0EFF810BDC8100020A4
:101C200010B50249486B01F0E7F810BDC81000205C
:101C300010B50249886B01F0DFF810BDC810002014
:101C400010B50249C86B01F0D7F810BDC8100020CC
:101C500010B50249486801F0CFF810BDC810002047
:101C600010B50249886801F0C7F810BDC8100020FF
:101C700010B50249C86801F0BFF810BDC8100020B7
:101C800010B50249086901F0B7F810BDC81000206E
:101C900010B50249486901F0AFF810BDC810002026
:101CA00010B50249886901F0A7F810BDC8100020DE
:101CB00010B50249C86901F09FF810BDC810002096
:101CC00010B50249086A01F097F810BDC81000204D
:101CD00010B50249486A01F08FF810BDC810002005
:101CE00010B501201149087011490870592004F0FD
:101CF0003DF91048007818B900200F49087002E03B
:101D000001200D4908700B480078401C09490870F3
:101D100008460078022801DB002008704FF0FF30F1
:101D200006490860592004F02DF910BDF801002083
:101D30005D020020F00100205C020020A0B0044001
:101D40002DE9F04F07468C469146002039468346E0
:101D500001F801BBB9F1000F1ED0DCF8004034B926
:101D60004FF0300B81F800B0401CBDE8F08F10E060
:101D700094FBF3F808FB1345002D05DA2A466FEAB9
:101D8000020B0BF1310500E03035444601F8015BF0
:101D9000401C002CECD125E0DCF800602EB94FF09F
:101DA000300B81F800B0401CDFE719E0B6FBF3FA16
:101DB0000AFB13620A2A01D230320DE0A2F10A0BAB
:101DC000DDF824E0BEF1000F02D04FF0410E01E03B
:101DD0004FF0610E0BEB0E02564601F8012B401C32
:101DE000002EE3D100BFC0E70FB438B50948007832
:101DF00020B94FF0FF3038BC5DF814FB05A8009007
:101E00000548009A049900F009F804460020009063
:101E10002046F0E714100020812000002DE9F74F44
:101E200092B006468B464FF00008C146002007904E
:101E3000039001905D4606E1252C05D02046B04771
:101E40000798401C0790FDE04FF0010A0020069023
:101E5000089012E0681C05460478302C0ADB392C07
:101E600008DCA4F13000069901EB810100EB410090
:101E7000069002E06D1E0120089008980028E9D025
:101E800006200590681C054600782E281AD10020EF
:101E90000590089012E0681C05460478302C0ADB97
:101EA000392C08DCA4F13000059901EB810100EB2D
:101EB0004100059002E06D1E01200890089800285E
:101EC000E9D000E06D1E681C05460478642C11D032
:101ED000692C0FD0662C0DD0462C0BD0782C09D055
:101EE000582C07D06F2C05D0622C03D0702C01D059
:101EF000752C77D1642C01D0692C11D1149800680D
:101F000002901498001D14900A23012202A909A826
:101F1000CDF800A0FFF714FF814609A800EB0908DF
:101F2000582C01D0782C15D1782C01D14FF0000A13
:101F30001498006801901498001D1490102300223A
:101F400001A909A8CDF800A0FFF7FAFE814609A86B
:101F500000EB09086F2C05D0622C03D0702C01D047
:101F6000752C28D11498006801901498001D1490C5
:101F7000622C09D06F2C04D0702C08D0752C0CD199
:101F800008E00820039009E00220039006E01020FA
:101F9000039003E00A20039000E000BF00BFCDF8EB
:101FA00000A0002201A909A8039BFFF7C9FE8146F2
:101FB00009A800EB090807AB009649462020069ABD
:101FC00000F049F8B8F1000F3BD005E018F801091E
:101FD000B0470798401C079098F800000028F5D1FA
:101FE0002FE0FFE7632C0BD1149810F8041B14901A
:101FF000C8B204900498B0470798401C079020E0AE
:10200000732C19D1149880C81490D7B13846FEF7B4
:102010008BFC814607AB009649462020069A00F0CB
:102020001AF805E017F8010BB0470798401C079015
:1020300038780028F6D104E02046B0470798401CC5
:10204000079000BF6D1C2878041E7FF4F5AE07983A
:1020500015B0BDE8F08F2DE9F04780460D461646D5
:102060001C46DDF820902F4605E04046C847206812
:10207000401C20607F1CB742F7DBBDE8F087000002
:1020800001B50748007810B94FF0FF3008BD04498A
:10209000486801228B68694698470120F6E70000EE
:1020A0001410002000B59BB0FE48C068FD490969C6
:1020B000884202DDFB48006901E0FA48C068FA493D
:1020C0000860F8480068F7494968884208DDF54823
:1020D0004068F6490860F3480068F549086007E081
:1020E000F0480068F1490860EE484068F04908602F
:1020F000EC480068EB494968401A1890E9480068C4
:10210000E849496808441990199808B901201990BC
:10211000199809F0C3FD1590189809F0D6F9002216
:10212000E44BCDE9100109F023FACDE9120108F0E2
:102130005FFF1490159909F0D3FCDF4908601898E7
:10214000002803DD0120DD49086006E0189800281A
:1021500003DA4FF0FF30D9490860D44800681428EA
:1021600016DAD6480068D6490968884208D0189817
:10217000002801DD189801E018984042C82807DCC3
:10218000D0480068CC490860CD480068CB49086059
:10219000CA480068CA490860C4480068142826DA9A
:1021A0000021C548006809F0A5FE02D2C2480068B7
:1021B00003E0C148006880F00040139009F0F6FB8E
:1021C000C14AC24BCDE9140109F096F90FD2BB48C0
:1021D000006809F07AF9BC4ABC4BCDE9120109F05C
:1021E000C7F9CDE9140108F003FFB3490860B2480C
:1021F0000068B4490860AB48C068AA490969401A38
:102200001690A848C068A74909690844179017980C
:1022100008B901201790179809F040FD15901698FD
:1022200009F053F90022A34BCDE9100109F0A0F900
:10223000CDE9120108F0DCFE1490159909F050FC6C
:10224000A34908601698002803DD0120A149086011
:1022500006E01698002803DA4FF0FF319D48016030
:10226000914800680A2817DA9A4800689A4909686C
:10227000884209D01698002801DD169801E01698CA
:102280004042B0F5967F07DC9448006890490860AA
:10229000914800688F4908608E4800688E49086040
:1022A000814800680A2826DA00218948006809F078
:1022B00021FE02D28648006803E08548006880F06D
:1022C0000040139009F072FB0022854BCDE9140108
:1022D00009F012F90FD27F48006809F0F6F80022E1
:1022E0007F4BCDE9120109F043F9CDE9140108F063
:1022F0007FFE774908607648006878490860694839
:10230000806840F6B831081A0F9009F0DEF8002214
:10231000684BCDE9100109F02BF9CDE9120108F065
:1023200067FE7049159009F0DBFB6F4908600021DA
:102330006748006809F0DEFD02D26548006803E0E6
:102340006348006880F00040139009F02FFB4FF0C5
:102350003332664BCDE9140109F0CEF825D20021C5
:102360005B48006809F0C6FD02D25948006803E0E6
:102370005748006880F0004015905B480168159848
:1023800009F0B8FC11D25A48007870B900215048C1
:10239000006809F0AFFD02D24D48006803E04C48E8
:1023A000006880F00040504908605148007810B340
:1023B00000214148006809F09DFD02D23E480068B6
:1023C00003E03D48006880F00040109046480168F6
:1023D000109809F0C3FC119009F0E8FA0022354B7F
:1023E000CDE9120108F0EAFECDE9140108F000FE83
:1023F0003D49086021E000213548006809F07AFD78
:1024000002D23348006803E03148006880F00040A1
:10241000109035480168109809F0A0FC119009F05F
:10242000C5FA0022234BCDE9120108F0C7FECDE921
:10243000140108F0DDFD2C4908602E4880682E4903
:10244000896888422CDA1C4801682148006809F034
:1024500085FC0021159009F04DFD7ED227480078BB
:10246000F0B1254880680B9009F02FF8CDE90E01F6
:1024700021488068079009F028F8CDE90A011E4834
:1024800080681C498968401A039009F01EF8CDE95C
:1024900006011948806817498968401A01902FE0A1
:1024A0005BE00000E00D0020340100202C01002042
:1024B0003001002000002440000100201001002015
:1024C00014010020040100209A99999999992240B9
:1024D0000801002024010020280100200C01002018
:1024E0000000234000803B45180100203333F33FB8
:1024F00073000020BC0D0020DC000020B60000208E
:1025000008F0E3FF0022FE4BCDE9020109F030F8AC
:10251000CDE90401DDE9062309F02AF8CDE9080137
:10252000DDE90A2308F04AFECDE90C01DDE90E23BE
:1025300008F044FECDE91201F248006809F036FACD
:10254000CDE91001DDE9122308F084FDCDE9140185
:1025500008F04EFDEB49086054E0EB480078E0B32A
:10256000EA488068EA49896888424BDAE848806826
:102570000B9008F0AAFFCDE90E01E54880680790AE
:1025800008F0A3FFCDE90A01E1488068DF498968C6
:10259000401A039008F099FFCDE90601DC488068F5
:1025A000DA498968401A019008F08FFF0022D94B60
:1025B000CDE9020108F0DCFFCDE90401DDE90623E5
:1025C00008F0D6FFCDE90801DDE90A2308F0F6FDA1
:1025D000CDE90C01DDE90E2300E013E008F0EEFD8B
:1025E000CDE91201C748006809F0E0F9CDE9100112
:1025F000DDE9122308F02EFDCDE9140108F0F8FC06
:10260000C0490860BF480068C3490860C3480078F3
:10261000012808D1C248406940F21451884202DDC5
:102620000220BE490870BD48007802281FD1BC486E
:102630004069B0F5967F17DB0021BA48006809F0C1
:1026400059FC02D2B748006803E0B648006880F041
:102650000040139009F0AAF900224FF08043CDE921
:10266000140108F049FF02D20020AC490870AE48BE
:10267000007890BBAD48007878BBAD48007860BB6F
:10268000A8480168AB48006809F070FC002112906E
:1026900009F030FC06D2A3480168A648006809F09A
:1026A00065FC07E09F480168A248006809F05EFCED
:1026B00080F00040139009F079F900229E4BCDE99B
:1026C000140109F053F832D200219648006809F04D
:1026D00011FC03D29348006804E028E091480068A8
:1026E00080F00040002115909248006809F002FC3B
:1026F00002D29048006803E08E48006880F00040F5
:102700001490159909F0F6FA11D285484069B0F590
:10271000966F0CDD8148007848B98848007810B978
:102720008748007818B101208549087002E0002030
:10273000834908707448007888B38248007870BB79
:102740008148006808F0C1FECDE90E016D480068BF
:1027500009F02CF900227D4BCDE90A0108F008FFB1
:10276000CDE90C01DDE90E2308F002FFCDE91201ED
:102770007048006809F01AF90022744BCDE90E0187
:1027800008F0F6FECDE91001DDE9122308F062FC45
:10279000CDE9140108F02CFC6D4908607FE0FFE7EB
:1027A00068480078E8B36B480078D0B36A4800689E
:1027B00008F08BFECDE90E015248006809F0F6F8EA
:1027C000664A674BCDE90A0108F0D2FECDE90C015B
:1027D000DDE90E2308F0CCFECDE912015148006876
:1027E00009F0E4F85D4A5F4BCDE90A0108F0C0FE4C
:1027F000CDE90E014F48006809F0D8F8574A5A4B06
:10280000CDE90A0108F0B4FECDE90C01DDE90E23A3
:1028100008F020FCCDE91001DDE9122308F01AFCD4
:1028200000E006E0CDE9140108F0E2FB4849086049
:1028300035E03A48007810B94148007840B13D4849
:1028400001684A48006809F089FA4149086026E0B1
:102850004148006809F022FA13902A480168444868
:10286000006809F07BFA1290139909F077FA159035
:102870002C4801683F48006809F070FA13902D4811
:1028800001683A48006809F069FA1290139909F052
:10289000B9F81490159909F0B5F82D4908601B484E
:1028A00000881A4989880844184909890844324926
:1028B0000988401A01B2314801801C48007800287C
:1028C0001CD12E48B0F90000B0F5617F16DD184824
:1028D000007898B92A48B0F900002849B1F90010E9
:1028E00088420BDC27480088401C00B2254908803C
:1028F0000846B0F9000002287EDD45E0B3E00000A4
:10290000000036401801002073000020BC0D00209C
:10291000DC00002000001C401C01002020010020E1
:10292000E00D002008010020560000206600002075
:102930004401002000010020000018406500002034
:1029400021010020B6000020100100200000E03F1F
:1029500020000020A4010020240100209A999999C8
:102960009999D93F9999A93F9999E13FF40000209D
:10297000FC000020F8000020C00000203C010020E6
:102980003E0100204C0100200120414908704149CE
:1029900008804148C0684149C968401A119009F04F
:1029A0007DF912903E48C06801461190129809F0D6
:1029B000D5F914903848406838494968401A0F9052
:1029C00009F06CF910903648406801460F90109855
:1029D00009F0C4F912903048006930490969401A79
:1029E0000D9009F05BF90E902D48006901460D909D
:1029F0000E9809F0B3F900E038E01090264800681E
:102A000026490968401A0D9009F048F90E902448AB
:102A1000006801460D900E9809F0A0F90F901099EA
:102A200008F0F0FF1190129909F0A0FA1390149990
:102A300009F09CFA159009F015F900B219490880BF
:102A40000846B0F90000002806DD1748006818B9EC
:102A500001201649087009E01348006830B90120C8
:102A60001349087002E00020124908801248B0F9AA
:102A70000000124908800648007838B10448007800
:102A8000062803D001F0F4FF04F09CF91BB000BD50
:102A90004401002050010020BC0D0020DC0000207B
:102AA000F80D002040010020440AFE4342010020AE
:102AB000430100204C0100203C0100203E01002089
:102AC000014608E0002002E000BF421C90B241F243
:102AD00088329042F8DB0A1EA1F10101F2D1704761
:102AE00008B500208DF800006A460821134801F05F
:102AF0002FFE6A460921114801F02AFE6A4610217C
:102B00000E4801F025FE6A4611210C4801F020FE16
:102B10006A461421094801F01BFE6A461521074840
:102B200001F016FE6A461621044801F011FE6A46BD
:102B30001721024801F00CFE08BD000040F00F40D4
:102B4000FCB505460E4614461F4600200090019035
:102B5000002C7DDB554894FBF0F03030C0B28DF88E
:102B60000000524894FBF0F100FB1140504990FBEB
:102B7000F1F03030C0B28DF801004C4894FBF0F118
:102B800000FB11404A4990FBF1F201FB120042F2B6
:102B9000107190FBF1F03030C0B28DF80200434864
:102BA00094FBF0F100FB1140414990FBF1F201FB75
:102BB000120042F2107190FBF1F201FB12004FF48F
:102BC0007A7190FBF1F03030C0B28DF803003748D5
:102BD00094FBF0F100FB1140354990FBF1F201FB51
:102BE000120042F2107190FBF1F201FB12004FF45F
:102BF0007A7190FBF1F201FB1200642190FBF1F07D
:102C00003030C0B28DF80400284894FBF0F100FB8E
:102C10001140274990FBF1F201FB120042F21071C2
:102C200090FBF1F201FB12004FF47A7190FBF1F28C
:102C300001FB1200642190FBF1F201FB12000A215A
:102C400090FBF1F03030C0B28DF80500174800E07D
:102C500022E094FBF0F100FB1140154990FBF1F2EA
:102C600001FB120042F2107190FBF1F201FB120025
:102C70004FF47A7190FBF1F201FB1200642190FB9A
:102C8000F1F201FB12000A2190FBF1F201FB1200AC
:102C90003030C0B28DF80600C7F10700694642180F
:102CA0002946304602F004FBFCBD000040420F0004
:102CB000A08601002DE9FC4705460E4617469846BA
:102CC0003946424809F04AF8814608F0CBFF0446ED
:102CD000002000900190002C33DB2B208DF80000A9
:102CE0003B4894FBF0F03030C0B28DF8010042F266
:102CF000107094FBF0F00A2190FBF1F201FB12003E
:102D00003030C0B28DF802002E208DF803004FF451
:102D10007A7094FBF0F090FBF1F201FB120030307E
:102D2000C0B28DF80400642094FBF0F090FBF1F247
:102D300001FB12003030C0B28DF8050000208DF884
:102D40000600002C37DA2046FEF792F804462D20C4
:102D50008DF800001E4894FBF0F03030C0B28DF8C2
:102D6000010042F2107094FBF0F00A2190FBF1F2A6
:102D700001FB12003030C0B28DF802002E208DF819
:102D800003004FF47A7094FBF0F090FBF1F201FB3A
:102D900012003030C0B28DF80400642094FBF0F0D3
:102DA00090FBF1F201FB12003030C0B28DF805004B
:102DB00000208DF80600C8F1070069464218294630
:102DC000304602F075FABDE8FC87000000401C4662
:102DD000A086010010F1800F00D1704700BF00F005
:102DE0001F0201219140034A430942F8231000BF0A
:102DF00000BFF2E780E100E02DE9F047044604B1AE
:102E000005E040F236322EA133A007F089FC207C89
:102E1000A168C877E06840B9206830B1002301227A
:102E20002046D4E90051A84747E0A06800F580504B
:102E3000217C00EB4110D0F81880A06800F580508C
:102E4000217C00EB4110808BC0F3C019E068A8EB37
:102E500000084FEA5817B9F1000F01D0FEB206E0A2
:102E60000FB1781E02E094F91400401EC6B294F926
:102E70001100B0420AD194F9130094F91410884259
:102E800002D194F9135009E0002507E094F91100EC
:102E9000351A002D02DA94F91400054470B26074FA
:102EA000E07C401B40B2E074206828B12B464A46C3
:102EB0002046D4E900C1E04700BFBDE8F08700002C
:102EC0002E2E5C4472765C5372635C66736C5F6535
:102ED000646D612E6300000068616E646C65202182
:102EE0003D204E554C4C000010F1800F00D1704732
:102EF00000BF00F01F02012191404209920002F13F
:102F0000E022C2F8001100BF00BFF0E710B5044690
:102F100014F1800F00D110BD204603F033F800BF3C
:102F2000F9E710F1800F00D1704700BF00F01F02D9
:102F3000012191404209920002F1E022C2F8001101
:102F400000BF00BFF0E700000EB500208DF80000C4
:102F50008DF808001548FEF775FA052014494865F4
:102F60004FF6FF720021124800F036FE104800F0C4
:102F70000BFD00236A4669460D4800F0F3FF0D483B
:102F8000FEF760FA05200C4948654FF6FF720021F4
:102F9000094800F021FE084800F0F6FC00236A46CC
:102FA0006946054800F0DEFF0EBD000019003C1028
:102FB000009003401800301000800B402DE9F04FC6
:102FC00085B00027FC48B0F90000FC49B1F90010B9
:102FD000884219DBF849B1F90010F84AB2F900202B
:102FE000881A08F072FA0022F54BCDE9000108F0CA
:102FF000BFFACDE9020108F039FAEF490988081A49
:1030000000B2F049088018E0EC49B1F90010EA4A32
:10301000B2F90020881A08F058FA0022E84BCDE9EE
:10302000000108F0A5FACDE9020108F01FFAE34912
:103030000988081A00B2E3490880DF480088772829
:103040001DD1DE48B0F90000642818DADE480078A7
:10305000A8B9DE48B0F90200C01C77280FDADB49B6
:10306000B1F90210A1F1740000EBD071D84AB2F8A6
:10307000DC2102EB610109B2D54AA2F8DC11CF488C
:10308000008877281DD1CC48B0F90000642818DAF0
:10309000D0480078A8B9D048B0F90200C01C772801
:1030A0000FDACD49B1F90210C1F1740000EBD07113
:1030B000CA4AB2F8DC2102EB610109B2C74AA2F8A0
:1030C000DC117724CCE0BC48B0F90000844213DB6B
:1030D000BA48B0F9000084420EDBBD4931F9241032
:1030E000BE4A32F92420881800EBD071491009B289
:1030F000BB4A22F82410B1E0AF48B0F90000AF4954
:10310000B1F90010884254DDAB49B1F90010AB4A67
:10311000B2F90020881AFDF7ABFEAD49A74AB2F913
:10312000002031F92210AD4AA34BB3F9003032F937
:10313000232001EB020B0BEBDB71A94A9E4BB3F989
:10314000003032F92320C2EB610149004FF4C8720C
:10315000514391FBF0F0039008F0A0FD80469649A2
:10316000B1F90010081B08F099FD4146009008F0E5
:10317000F5FD83469B4908F0B3FC99498E4A0290BD
:10318000B2F9002031F9220008F088FD019002997F
:1031900008F038FC039008F065FD00B2904921F872
:1031A0002400084630F924009F2857DB8548048016
:1031B0005CE08149B1F90010804AB2F90020881A18
:1031C000FDF756FE82497D4AB2F9002031F92210FE
:1031D000824A794BB3F9003032F9232001EB020B1C
:1031E0000BEBDB717E4A754BB3F9003032F92320CB
:1031F000C2EB610149004FF4C872514391FBF0F0FA
:10320000039008F04BFD80466C49B1F90010081B93
:1032100008F044FD4146009008F0A0FD714901907E
:1032200008F05EFC83466E49644AB2F9002031F929
:10323000220008F033FD5946029008F0E3FB0390AA
:1032400008F010FD00B2664921F82400084630F964
:103250002400002802DC5B48048007E0601E04B202
:103260005848B0F900008442BFF62DAF00BF5E4859
:10327000007800287ED15D4800780028FAD14F48B8
:10328000B0F900003A2875DA4B48B0F900003A2846
:10329000F9DA564800780028ECD155480078002823
:1032A000E8D1544890F900000228ECDA524800684E
:1032B00049F2704188425DDD4048B0F900003E4966
:1032C000B1F90010884203DD3C48B0F9000002E08B
:1032D0003948B0F9000004904FF000090020474938
:1032E00008700498401D04B28EE00027384830F87A
:1032F0002400401C05B251E004EB8400404901EB7E
:103300004010405DC0B904EB840001EB4011681C23
:10331000085C88B904EB8400394901EB4011A81C12
:10332000085CFE2808D104EB8400354901EB40110C
:10333000E81C085CFE2825D0601C00EB80003049AA
:1033400001EB4010405DF8B9601C00EB800001EB20
:103350004011681C085CB8B9601C00EB800028496B
:1033600001EB4011A81C085CFE280DD1601C00EB8D
:10337000800000E0FAE0224901EB4011E81C085C03
:10338000FE2801D1781C07B2022F05DD264609F17F
:1033900001004FFA80F907E0681C05B2104830F9C7
:1033A0002400C01CA842A7DC00BFB9F1010F29DD31
:1033B0000120124908702EE0520000205000002029
:1033C0000000E03F5400002093000020480000204F
:1033D0001C030020920000204C000020FC04002070
:1033E000DC0600200000C8434401002056000020F5
:1033F0007100002069000020A8010020700000205A
:10340000C012FF1F601C04B2CC48B0F90200001FBC
:10341000A042BFF66AAF00BFC9480078012875D145
:10342000B01F04B26EE00027C64830F9245058E0BF
:1034300004EB8400C44901EB4010405DC0B904EBCB
:10344000840001EB4011681C085C88B904EB84001F
:10345000BD4901EB4011A81C085CFE2808D104EB13
:103460008400B94901EB4011E81C085CFE2823D018
:10347000601C00EB8000B44901EB4010405DE8B9EE
:10348000601C00EB800001EB4011681C085CA8B9CF
:10349000601C00EB8000AC4901EB4011A81C085CEB
:1034A000FE280BD1601C00EB8000A74901EB401106
:1034B000E81C085CFE2801D1781C07B2022F0EDD43
:1034C0000120A2490870A249087000209C49087098
:1034D000A0480078401C40B29E49087006E0681C75
:1034E00005B29D4830F92400A842A1DC00BF9848ED
:1034F0000078012804D100209549087005E005E016
:10350000601C04B2B01D84428DDD00BF914800787C
:10351000012805D191480078401C40B28F490870BD
:103520008E4890F9000002280DDD00208B490870BC
:103530008849087085490870894908608948008869
:1035400000B2894908808148007801280ED1701F97
:1035500000EB80007C4901EB4011701F794A32F981
:103560002000085C10B9002078490870774800787E
:1035700070B17E48B0F90000012809DD754890F966
:103580000000022804DB012079490870794908709D
:103590007948B0F900003A2874DA7848B0F90000A8
:1035A0003A28F9DA7648007800286BD17548006827
:1035B000B0F5AF6F66D274480068002862D07348D7
:1035C000007800285ED07248B0F90000401C00EB83
:1035D00080005D4901EB40115A4A6D48B0F9000086
:1035E000401C32F920000830085C00284AD16848A5
:1035F000B0F90000401C00EB8000534901EB401182
:103600006348B0F90000401C32F920000838085C1B
:10361000002837D15E48B0F90000401C00EB800064
:10362000494901EB40115A48B0F90000401C32F9F9
:103630002000085C30BB48485549B1F9001030F90A
:1036400021105448524AB2F9002030F92200814238
:1036500070DD48480078A8B94F48006846F66051C8
:10366000884267DD01204D4908704FF0000A484844
:103670000088401C04B250E0464830F82400801C0A
:1036800005B21BE056E004EB84002F4901EB40102B
:10369000405DFE2810D104EB840001EB4011681C52
:1036A000085C48B904EB8400274901EB4011A81CD1
:1036B000085C08B9AA4606E0681C05B2214830F942
:1036C0002400A842DFDA00BF324830F92400AAEB18
:1036D0000000102803DD00203049087017E00AF1CF
:1036E000030005B20DE004EB8400174901EB401024
:1036F000405DFE2803D100202849087006E0681CC0
:1037000005B2104830F92400A842ECDA00BF234883
:10371000007800B907E0601C04B21D48B0F9000051
:10372000401D8442A8DB00BF1C480078012801D15D
:103730001349087005B0BDE8F08F00004800002074
:1037400070000020DC060020C012FF1F6700002070
:103750006800002069000020FC0400206A000020AE
:103760006C0000205401002076010020B4000020ED
:10377000B50100206600002050000020520000200B
:1037800071000020D00200202422FE43800100208E
:10379000540000201C030020A8010020720000201B
:1037A0002DE9F04F89B080460C4691469A4601AA11
:1037B0002146404607F060F94A4621464046059BAF
:1037C00007F00EF907461FB1384609B0BDE8F08F83
:1037D000504607F01FF907460FB13846F5E7019C40
:1037E000029D04EB0900461EB6FBF5F005FB1060D8
:1037F00030B1B6FBF5F000F1010B0BFB05F0461EF6
:103800000021404607F0CDF812E024F07F4040F060
:1038100010600B494860404607F006F90746D8F8A3
:10382000100010B1D8F81000804707B102E02C4416
:10383000B442EAD900BF404607F0ACF83846C4E7C6
:103840000000024010B504460CB9042010BD184A0F
:10385000D26CC2F303610F2902D14FF4002003E0C0
:10386000144A32F811209002002222606060022285
:1038700022729202E26000206061A0612061204615
:1038800007F0A0F858B100200B4908600B484860C9
:103890000B4888600846E061204600F013F84FF0BE
:1038A000A05020624FF4805060620020CEE70000FC
:1038B0000080044070CB0000A410002024100020E1
:1038C0006410002070B505460DB9042070BDEC6988
:1038D000606806F05DFFA06806F044FF02202060EB
:1038E0000020F3E72DE9F04188B080460D461446EC
:1038F0001E461CB9042008B0BDE8F0816A4629467E
:10390000404607F0B9F8324629464046039B07F087
:1039100067F807460FB13846EDE7009D00214046A5
:1039200007F03FF826E001CC164988600398042888
:1039300005D125F07F4040F0C06048600AE0039860
:10394000082807D101CC0F49C86025F07F4040F01E
:10395000E0604860404607F067F80746D8F8100076
:1039600010B1D8F81000804707B105E0039805446E
:103970000398361A002ED6D100BF404607F00AF849
:103980003846B8E700000240C16C41607047C16C26
:103990004160704710B5044604B105E040F22F12B3
:1039A0000AA110A006F0BCFE0020207060708020EC
:1039B00060600020A060207360730120A07300206D
:1039C0002061606120766076A07610BD2E2E5C446A
:1039D00072765C5372635C66736C5F66746D2E63A3
:1039E00000000000636F6E666967000070B50546F1
:1039F0000326002406E00A4850F82400A84200D11B
:103A000002E0641CB442F6D300BFB44200D204E02A
:103A1000612204A109A006F083FE204670BD0000CB
:103A200090CB00002E2E5C4472765C5372635C6611
:103A3000736C5F66746D2E6300000000696E7374B2
:103A4000616E6365203C2066746D417272617943DA
:103A50006F756E74000000002DE9F04105460C46BC
:103A600004B104E0DE222AA12FA006F059FE20793D
:103A700000F0F00010B90120BDE8F0812846FFF702
:103A8000B5FF2B4951F820702A4901EB1740016816
:103A90000122BA401143016000BF207B602101EA8E
:103AA0004010401C40F0040068652846616800F042
:103AB00043F82846A16800F093F8207800F007004A
:103AC00028606078C02101EA8010A17E4FF4007266
:103AD00002EA41210843C5F88400207EE865607E43
:103AE00028676069E866A07BC02101EA8010217C1C
:103AF00001F03F010843A866EE6F26F47066607B14
:103B00004FF4706101EA00200643EE670020B3E73E
:103B10002E2E5C4472765C5372635C66736C5F66D7
:103B2000746D2E6300000000636F6E6669670000AD
:103B30009CCB00000070044070B5002400220023DC
:103B4000836D43F00803426E00BF07E0E5006D1D82
:103B5000012606FA05F52A43651CECB21B4EB0425D
:103B600001D108260BE01A4EB04201D1022606E030
:103B7000184EB04201D1022601E04FF0FF3606EBAD
:103B8000D676B4EB660FE1DB4266D0F88C2042F0CB
:103B9000B40201F080050DB142F4F85201F0700555
:103BA00085B142F4F81201F010050DB143F0100395
:103BB00001F020050DB143F0200301F040050DB1E7
:103BC00043F040038365C0F88C2070BD0080034043
:103BD0000090034000800B40C16482607047000089
:103BE00030B50A4600230021D0F88C4044F004048C
:103BF000C0F88C40416E00BF06E0DC00641D01256A
:103C000005FA04F421435B1C2C4DA84201D1082580
:103C10000BE02B4DA84201D1022506E0294DA84218
:103C200001D1022501E04FF0FF3505EBD575B3EB6F
:103C3000650FE2D34166D0F89810204CA04201D124
:103C400008250BE01E4CA04201D1022506E01D4CC8
:103C5000A04201D1022501E04FF0FF350124AC4024
:103C6000641EA143154CA04201D108250BE0144C61
:103C7000A04201D1022506E0124CA04201D102254A
:103C800001E04FF0FF350124AC40641E1440214395
:103C9000C0F89810816D02F4807414B141F00201F3
:103CA00001E021F0020102F4007414B141F00101BD
:103CB00001E021F00101816530BD0000008003407A
:103CC0000090034000800B402DE9FE4F05460C4656
:103CD00092469846DDF830B004B105E04FF4A97281
:103CE0008BA191A006F01CFD0D9800B105E040F2FB
:103CF000531287A18FA006F013FDBBF1000F00D077
:103D000005E04FF4AA7282A18DA006F009FDBAF178
:103D1000000F00D005E040F255127DA18BA006F007
:103D2000FFFC286800F00701012088400D99B1FBD5
:103D3000F0F00290B8F1000F06D0B8F1010F0DD0ED
:103D4000B8F1020F14D100E000BF286820F0200075
:103D500028600298B0FBFBF0461E0CE0286840F09B
:103D6000200028604FEA4B010298B0FBF1F602E018
:103D70000120BDE8FE8F00BFB6F5803F01D30120D2
:103D8000F7E7AE6000200090BBE0608842F210715F
:103D9000884201DD0120ECE7B8F1000F02D0B8F154
:103DA000010F2AD1217805F10C0050F8317027F06D
:103DB0003C07607847EA800747F02007217805F143
:103DC0000C0040F83170608810B94FF000090CE029
:103DD0006088704342F21071B0FBF1F01FFA80F975
:103DE000B14502D3701C1FFA80F9217805F10C004F
:103DF00000EBC100C0F804907EE057498D4201D12C
:103E000008210BE055498D4201D1022106E05449B9
:103E10008D4201D1022101E04FF0FF3108462178A7
:103E200000EBD072B1EB620F01DB0120A1E720793A
:103E3000642801DD01209CE7207910B90020019061
:103E400006E0207970436421B0FBF1F080B201906C
:103E5000608820B94FF00009002001900BE06088D5
:103E600070436421B0FBF1F01FFA80F9B14502D331
:103E7000701C1FFA80F92078410005F10C0050F801
:103E8000317027F03C07607847EA800720784100CE
:103E900005F10C0040F831702078012101EB400160
:103EA00005F10C0050F8317027F03C07607847EAC4
:103EB00080072078012101EB400105F10C0040F85A
:103EC0003170686E2178C90001228A40104368660B
:103ED00021784A0005F10C0101EBC201019848600C
:103EE000019800EB09012078012202EB400205F164
:103EF0000C0000EBC2004160A41D0098401CC0B241
:103F0000009000985045FFF640AF002031E70000D8
:103F10002E2E5C4472765C5372635C66736C5F66D3
:103F2000746D2E630000000063686E6C50617261F6
:103F30006D730000737263436C6F636B5F487A004C
:103F400070776D467265715F487A00006E756D4FCF
:103F50006643686E6C73000000800340009003406D
:103F600000800B402DE9F04104460E461746984666
:103F700006B105E040F2952222A128A006F0D0FB70
:103F800007B105E040F296221EA128A006F0C8FB6A
:103F9000307838B1A56F25F00F05307900F00F00AB
:103FA0000543A567387840B1A56F25F0F005F021ED
:103FB000786801EA00100543A56754F8805F25F092
:103FC000F805082000EAC8003178802202EAC11111
:103FD00008433978402202EA81110843317A2022CD
:103FE00002EA41110843397A102202EA011108431A
:103FF00005432560206840F0010044F88009BDE8D1
:10400000F08100002E2E5C4472765C5372635C6615
:10401000736C5F66746D2E630000000070686173DE
:104020006541506172616D730000000070686173DA
:104030006542506172616D73000000002DE9F0412E
:1040400014461D4600268768BBB20CB1012C10D166
:1040500003FB05F742F2107C97FBFCF7BAB29A42D9
:1040600001DB5F1CBAB200F10C0707EBC1077A60F5
:1040700039E0DFF880C0604502D14FF0080C0FE056
:10408000DFF874C0604502D14FF0020C08E0DFF8A1
:104090006CC0604502D14FF0020C01E04FF0FF3CD4
:1040A0000CEBDC7CB1EB6C0F01DBBDE8F08103FBBA
:1040B00005F74FF0640C97FBFCF7BAB200F10C0760
:1040C00007EB01177F68BEB29A4201DB5F1CBAB2F0
:1040D00006EB020C012707EB410800F10C0707EB88
:1040E000C807C7F804C0876D47F08007876500BF21
:1040F000DBE70000008003400090034000800B409D
:1041000010B57348B0F90020042300210846FEF7DB
:1041100017FD01236F4890F900201E210020FEF7B3
:104120000FFD01236C4890F9002028210020FEF7A4
:1041300007FD0123694890F9002032210020FEF795
:10414000FFFC0123664890F900203C210020FEF787
:10415000F7FC0123634890F9002046210020FEF778
:10416000EFFC0123604890F9002050210020FEF769
:10417000E7FC01235D4890F900205A210020FEF75A
:10418000DFFC01235A4890F9002064210020FEF74B
:10419000D7FC0123574890F900206E210020FEF73C
:1041A000CFFC55480423002102680120FEF7C8FC1B
:1041B000514804232D2182680120FEF7C1FC4E489E
:1041C00004235A2142680120FEF7BAFC4A4804231E
:1041D0000021C2680220FEF7B3FC474804232D21CA
:1041E00042690220FEF7ACFC434804235A210269CD
:1041F0000220FEF7A5FC41A20321192001F08AF854
:1042000041480423002102681846FEF799FC3E4805
:1042100004232D2182681846FEF792FC3A480423B5
:104220005A2142681846FEF78BFC374804230021C8
:10423000C2680520FEF784FC334804232D2142691F
:104240000520FEF77DFC304804235A210269052031
:10425000FEF776FC07232D48002102680620FEF7B2
:1042600029FD07232A482D2102680620FEF722FD9A
:10427000072328485A2102680620FEF71BFD012368
:10428000254890F9002000210720FEF759FC012362
:10429000224890F900200F210720FEF751FC01234E
:1042A0001F4890F900201E210720FEF749FC01233A
:1042B0001C4890F900202D210720FEF741FC072320
:1042C00019483C2102681846FEF7F4FC10BD0000B6
:1042D000100F002044010020420100204301002073
:1042E000AC0100206700002056000020B50100202E
:1042F000B60100209A000020BC0D002047756959C6
:10430000695F76616C756500E00D0020000100209A
:104310000801002018010020650000207100002025
:1043200073000020940100202000002010B56E488A
:10433000006810B952206D4908706B480068012868
:1043400002D157206949087068480078522874D013
:10435000572871D1664B60224FF4FF216548FFF763
:104360001FFA00F0C9FA64480068642190FBF1F07C
:104370006249086060480068642190FBF1F201FB2B
:1043800012005E4948605C484068642190FBF1F08F
:104390005A49886058484068642190FBF1F201FB5B
:1043A00012005649C86054488068642190FBF1F0BF
:1043B0005249086150488068642190FBF1F201FB8A
:1043C00012004E4948614E480068642190FBF1F0AC
:1043D0004A4988614A480068642190FBF1F201FB78
:1043E00012004649C86146484068642190FBF1F0DC
:1043F0004249086242484068642190FBF1F201FBA7
:1044000012003E4948623E488068642190FBF1F00A
:104410003A4988623A488068642190FBF1F201FBD6
:1044200012003649C86260230A464FF4FF21314822
:10443000FFF758FA56E000E053E0002008E0810062
:1044400001F5FE21D1F800182E4A42F82010401C38
:104450000C28F4DB2B4840682A49096801EBC102AB
:1044600002EB011100EB8100234908602548C06878
:104470002449896801EBC10202EB011100EB8100C4
:104480001D4948601F484169006900EBC00202EB0A
:10449000001001EB8000184988601A48C06919496A
:1044A000896901EBC10202EB011100EB81001449A3
:1044B00008601448406A1349096A01EBC10202EB23
:1044C000011100EB81000E4948600E48C16A806A04
:1044D00000EBC00202EB001001EB8000084988608D
:1044E00000E000BF00BF10BD200AFE43D402002040
:1044F0006B66656BE00F0020C4000020200F0020D9
:10450000DC000020800F002010B50248FFF79AF968
:1045100010BD0000E00F002010B56E48006810B913
:1045200052206D4908706B480068012802D157205D
:104530006949087068480078522874D0572871D1AA
:10454000664B60224FF4FF216548FFF729F900F020
:1045500025FA6448C068642190FBF1F06249086361
:104560006048C068642190FBF1F201FB12005E49D3
:1045700048635C480069642190FBF1F05A49886304
:1045800058480069642190FBF1F201FB1200564982
:10459000C8635648C068642190FBF1F05249086432
:1045A0005248C068642190FBF1F201FB12004E49B1
:1045B00048644E480069642190FBF1F04A498864E0
:1045C0004A480069642190FBF1F201FB1200464960
:1045D000C86444484069642190FBF1F04249086591
:1045E00040484069642190FBF1F201FB12003E4912
:1045F00048653E484069642190FBF1F03A4988657E
:104600003A484069642190FBF1F201FB12003649FF
:10461000C86560230A464FF4FF213148FFF762F96D
:1046200056E000E053E00C2008E0810001F5FE2197
:10463000D1F800182E4A42F82010401C1828F4DB4C
:104640002B48406B2A49096B01EBC10202EB0111B7
:1046500000EB81002349C8602548C06B2449896B61
:1046600001EBC10202EB011100EB81001D49086161
:104670001F48416C006C00EBC00202EB001001EB24
:1046800080001A49C8601A48C06C1949896C01EB4E
:10469000C10202EB011100EB8100144908611448CA
:1046A000406D1349096D01EBC10202EB011100EBF2
:1046B00081000C4948610E48C16D806D00EBC0025D
:1046C00002EB001001EB80000849486100E000BFE8
:1046D00000BF10BD240AFE43D40200206B66656B48
:1046E000E00F0020C4000020200F0020DC0000208C
:1046F000800F002010B590B01822134903A8FCF7D2
:1047000077F909A8FFF746F909A91048FFF7A4F9B6
:104710000220FCF7A7FF044643F2154000230422C1
:1047200003A9CDE900040948FFF7CEFA0121074AA1
:10473000106820F01800182202EAC1021043034A50
:10474000106000BF10B010BD74C0000000800340B6
:1047500070B504460D46164606B104E04B220EA184
:1047600013A005F0DDFF307828B961690120A84069
:10477000814361610FE02846717819B901228240B6
:10478000A26002E001228240626000BF60690121F4
:10479000A9400843606170BD2E2E5C4472765C5364
:1047A00072635C66736C5F6770696F2E63000000F4
:1047B000636F6E6669670000F0B59FB0782101A84D
:1047C000FCF748F900242AE00A213E48FCF755FB93
:1047D00001A941F824000F213A48FCF74EFB06A935
:1047E00041F824000D213748FCF747FB0BA941F89D
:1047F00024000B213348FCF740FB10A941F82400AA
:104800000E213048FCF739FB15A941F824000C2192
:104810002C48FCF732FB1AA941F82400641C052C33
:10482000D2DB00243BE0002636E000252FE004EB3D
:10483000840001A901EB800050F8251004EB8400EE
:1048400001AA02EB8002681C52F8200081421DDDA3
:1048500004EB840001A901EB8001681C51F8207071
:1048600004EB840001A901EB800050F8251004EB53
:10487000840001AA02EB8002681C42F8201004EBBD
:10488000840001A901EB800040F825706D1CC6F181
:104890000500A842CBDC761C052EC6DB641C062C6A
:1048A000C1DB002409E004EB840001A901EB8000D6
:1048B0008068054941F82400641C062CF3DB1FB016
:1048C000F0BD000000B00B40BC0D002070B50446E8
:1048D00022466821074800F035F90546601CC2B23F
:1048E0006821044800F02EF9064606EB052000B2C8
:1048F00070BD00000060064010B5FFF75DFF244862
:10490000006824490968884207DD21480068214978
:1049100008601F484068204948601D4840681D499C
:104920004968884207DD1A4840681A4948601848B3
:1049300000681949086016488068164989688842E5
:1049400003DD134880681349886013490968124AD7
:104950005268881800EBD07149100F4A91600D49D8
:1049600009680C4A5268881800EBD0714910094A4E
:10497000D1601046C068114608610748806803216D
:1049800090FBF1F00449C8600846C068086110BD9A
:10499000BC0D0020C4000020DC00002010B5FFF793
:1049A0000BFF0848406908494969884202DD05480B
:1049B000406901E004484069034948610020034917
:1049C000486110BDBC0D0020C4000020DC000020A8
:1049D00070B586B0002427E0204850F82400204914
:1049E00051F82410884203DA00204DF824001AE020
:1049F0001A4850F824001B4951F82410884209DD58
:104A0000184850F82400164951F82410401A4DF85F
:104A1000240008E0114850F82400114951F82410EE
:104A2000401A4DF82400641C062CD5DB002411E04C
:104A30005DF8240007F032F906460B4850F82410C0
:104A4000304607F08BF9054607F00CF9074941F8A5
:104A50002400641C062CEBDB06B070BDBC0D0020EE
:104A6000DC000020C4000020F80D0020E00D002034
:104A700070B586B0002429E0214850F8240021496F
:104A800051F82410884203DA00204DF824001CE07D
:104A90001B4850F824101C4850F82400B1EB400F7C
:104AA0000ADD194850F82400164951F82410C1EBCA
:104AB00040004DF8240008E0114850F82400114946
:104AC00051F82410401A4DF82400641C062CD3DB46
:104AD000002411E05DF8240007F0E0F806460B48DA
:104AE00050F82410304607F039F9054607F0BAF8B7
:104AF000074941F82400641C062CEBDB06B070BDAE
:104B0000BC0D0020DC000020C4000020F80D0020B7
:104B1000100E002010B503480168034800F0EEF9BC
:104B200010BD0000FC0200200060064010B50348E4
:104B30004168034800F0E2F910BD0000FC020020CB
:104B40000070064030B503460C4600219D7845F0C4
:104B500010059D709D7845F020059D70002545EA63
:104B600044051D7106E04CF25035A94200DD06E017
:104B70004D1CA9B2DD7805F00205002DF3D000BF71
:104B8000DD7845F00205DD701A71002106E04CF277
:104B90005035A94200DD06E04D1CA9B2DD7805F0D4
:104BA0000205002DF3D000BFDD7845F00205DD7071
:104BB0009D7845F004059D70012505EB44051D71A8
:104BC000002106E04CF25035A94200DD06E04D1C04
:104BD000A9B2DD7805F00205002DF3D000BFDD7825
:104BE00045F00205DD709D7825F010059D709D78DB
:104BF00045F008059D701879002106E04CF250350B
:104C0000A94200DD06E04D1CA9B2DD7805F00205E1
:104C1000002DF3D000BFDD7845F00205DD709D78F2
:104C200025F020059D709D7825F010059D70187960
:104C300000BF034DED7805F02005202DF9D030BDE3
:104C40000060064030B50C460021857845F010051F
:104C50008570857845F020058570002545EA440576
:104C6000057106E04CF25035A94200DD06E04D1C0E
:104C7000A9B2C57805F00205002DF3D000BFC578B4
:104C800045F00205C5700271002106E04CF2503576
:104C9000A94200DD06E04D1CA9B2C57805F0020569
:104CA000002DF3D000BFC57845F00205C570037133
:104CB000002106E04CF25035A94200DD06E04D1C13
:104CC000A9B2C57805F00205002DF3D000BFC57864
:104CD00045F00205C570857825F02005857085783A
:104CE00025F01005857000BF034DED7805F0200517
:104CF000202DF9D030BD00000060064070B505469B
:104D0000002406E0094850F82400A84200D102E03F
:104D1000641C022CF6D300BF022C00D204E0B522A2
:104D200003A109A005F0FCFC204670BD28CC0000C2
:104D30002E2E5C4472765C5372635C66736C5F69A2
:104D400032632E6300000000696E7374616E6365E8
:104D5000203C2041525241595F53495A4528735FC4
:104D6000693263426173657329000000C170704746
:104D700010B5044604B105E040F2232205A10BA0C2
:104D800005F0CEFC0D4860600020207201202070EC
:104D900010BD00002E2E5C4472765C5372635C661C
:104DA000736C5F6932632E63000000006D61737481
:104DB0006572436F6E66696700000000A08601009F
:104DC0002DE9F04104460D4617460DB107B105E047
:104DD0004FF4ED7218A11EA005F0A2FC2046FFF7CB
:104DE0008DFF224951F820804046FCF737FB002018
:104DF00020706070A070FF20E07000206071E07192
:104E0000A07820F08000A07012212046FFF7AEFFAE
:104E10003A462046696800F02BF8A67926F01F066E
:104E2000287A00F01F000643A6712878802101EA45
:104E3000C010A070BDE8F0812E2E5C4472765C53E9
:104E400072635C66736C5F6932632E6300000000FE
:104E50006D6173746572436F6E66696720262620E4
:104E6000737263436C6F636B5F487A0034CC0000ED
:104E70002DE9F04F064617464FF0FF354FF000087A
:104E80004FF00009002227E04FF0010A0AFA02FC65
:104E900000231AE0DFF860A03AF813A00AFB0CFA2E
:104EA000B7FBFAF0814202D9A1EB000A01E0A0EBC6
:104EB000010A5446AC4204D290469946254604B9AC
:104EC00005E003F1010A0AF0FF03402BE2D300BF23
:104ED00002F1010A0AF0FF02022A01D8002DD3D103
:104EE0004FF0C00A0AEA881A09F03F0B4AEA0B0A97
:104EF00086F801A0BDE8F08FA8CB000070B504468D
:104F00000D46E07800F0100018B9A07800F02000FD
:104F100028B129462046094A1268904704E02946EC
:104F20002046074A1268904700BF00BF00BFBFF38A
:104F30004F8F00BF00BF00BF70BD00000403002002
:104F4000080300203EB56846FFF712FF05480190B0
:104F50000220FCF787FB0446224669460248FFF719
:104F60002FFF3EBD801A06000060064077211B4AD5
:104F700011801B4A11801B4A118000211A4A1170AE
:104F8000772151800021194A117077215180002129
:104F9000174A1170174A1170174A1170174A117089
:104FA000174A1170174A1170772014E00021164A31
:104FB00022F8201002EB800291709F21134A22F800
:104FC0002010002102EB800291705021104A22F83B
:104FD0002010411E08B22D28E8DA7047500000204A
:104FE0005200002054000020480000204C00002007
:104FF0005C000020620000206300002064000020AC
:1050000091000020900000201C030020FC040020E0
:10501000DC06002008B500208DF800006A461A2141
:105020000948FFF795FB6A461B210748FFF790FBED
:105030006A461C210448FFF78BFB6A461D21024883
:10504000FFF786FB08BD000000F00F4010B51E48BA
:105050000068C0B90A20FDF733FD1B48006868B935
:10506000002000F041F819480068401C174908600A
:1050700008460068032801DD0120086000BF1248CF
:1050800000680028FBD010480C300068D0B90A2016
:10509000FDF716FD0C480C30006868B9002000F0E0
:1050A00023F80A480068401E08490860084600685E
:1050B000012801DA0320086000BF03480C300068B3
:1050C0000028FAD010BD00006802FE43B80100209D
:1050D00007E040F2375100BF0A1EA1F10101FBD1E8
:1050E000401E0028F5D1704770B50646002415E033
:1050F00004F1B001C8B200F053F9012000F050F9FA
:10510000102000F04DF9002504E0304600F06AF967
:10511000681CC5B2802DF8DB601CC4B2082CE7DB2C
:1051200070BD000000B5012020490861002008631F
:105130003220FFF7CDFF01201C490863002005F055
:1051400007F8802004F0F2FF3F2005F016F8002059
:1051500004F0F5FF002004F0C7FF042004F0CBFFAB
:10516000022004F0AFFF012005F019F8082004F038
:10517000D6FF102004F0C9FFCF2004F0ACFFF120CF
:1051800005F004F8402005F011F8002004F0E7FFD6
:10519000002004F0EBFF012004F0DAFF0020FFF70D
:1051A000A3FF0021084600F0E7F800BD0000FE4321
:1051B0002DE9F04381460F46904600240026012544
:1051C0006BE00024012513E03748005D18F8061055
:1051D00088420BD13449601C095C701C18F800002F
:1051E000814203D1C4EBC400450005E0A01CC4B259
:1051F0002D48005D7F28E7DC00BFB9F1760F03DDA5
:105200004FF00009781CC7B23946484600F0B4F8A0
:10521000012D1FD03946484600F0AEF8002406E0C4
:105220002249485D00F0DEF86D1C601CC4B20E2CF3
:10523000F6DB781CC1B2484600F09EF8002406E078
:105240001A49485D00F0CEF86D1C601CC4B20E2CEB
:10525000F6DB1CE0701CC6B23946484600F08CF8FC
:10526000002404E0002000F0BDF8601CC4B2102C43
:10527000F8DB781CC1B2484600F07EF8002404E058
:10528000002000F0AFF8601CC4B2102CF8DB09F16C
:105290000E0000F0FF09B01CC6B218F80600002886
:1052A0008FD1BDE8F0830000B4C20000B9C2000095
:1052B0002DE9F0430446884615464FF000090026C4
:1052C000002720E0E85D203800F0FF097E2C04DD97
:1052D000002408F1010000F0FF084146204600F0DC
:1052E0004BF8002609E009EB4901094A02EB4101AC
:1052F000885D00F077F8701CC6B2062EF3DBA01DA7
:10530000C4B2781CC7B2E85D0028DBD1BDE8F083E9
:105310008CC00000F8B506460F461546002427E06D
:10532000285D7F2814DD285D8DF80000601C285C56
:105330008DF8010000208DF802006A46394630469B
:10534000FFF736FF06F10E00C6B2A01CC4B20FE094
:10535000285D8DF8000000208DF801006A4639466E
:105360003046FFF7A5FF06F10800C6B2601CC4B2C4
:10537000285D0028D4D1F8BD30B504460D4605F1AE
:10538000B001C8B200F00CF8102141EA141000F08E
:1053900007F804F00F0141F0010000F001F830BD02
:1053A000082100220E4BDA631A6112E000F080023D
:1053B0001AB101220A4B5A6102E00022084B5A61DD
:1053C0000122074B1A6100BF0022054B1A614206F9
:1053D000100E0A1EA1F10103D9B2E7D170470000F7
:1053E0000000FE43082101220E4BDA6300221A61FD
:1053F00012E000F080021AB101220A4B5A6102E069
:105400000022084B5A610122064B1A6100BF00229C
:10541000044B1A614206100E0A1EA1F10103D9B213
:10542000E7D170470000FE4370B5FE4800780028C1
:1054300040D0FD48007800F0080030B9FB48007803
:10544000042802D1FA480078A8BBFA48007890BB3B
:10545000F948006843F2B06188420BDC40F6340042
:10546000F6490880F4480068F549B1F9001008448D
:10547000F1490860F048006843F2B06188426DDD90
:10548000F048008800B2ED490880EF480068EC4918
:10549000B1F900100844EC4908600846006844F679
:1054A000206188425ADD0020DE490870E249086028
:1054B000E549086052E0FFE7DC48007804284DD158
:1054C000DB480078002849D0DA480078002845D128
:1054D0004FF4FA60D9490880D74800684EF6602139
:1054E000884208DAD4480068D549B1F90010084468
:1054F000D149086004E00020CA490870CE4908601C
:10550000D248006806F052FA04460022D04B06F05A
:105510002DF90FD2C348007801280BD1C648006886
:1055200041F27071884205DB0020C3490860022007
:10553000BC490870BB48007803280FD1C3480068F5
:1055400006F034FA04460022C24B05F0D5FF05D21E
:105550000120C14908700020B2490870BF48007896
:1055600018B9BF48007800284BD0B548B0F9000002
:10557000BC49B1F900100844BB4909680844BA495C
:105580000860AB48007888B3B8480078002828D174
:105590000846006806F082FB04462246B449B54836
:1055A00001F080FBB348008CA4490880AE48006835
:1055B00010F57A7F15DAA248B0F900000A287BDAE4
:1055C000A648007870B90020A5490870A64908606F
:1055D000A9490870A94908709A48008800B29749FB
:1055E000088069E00120A649087065E0FFE79E4851
:1055F000006848F6A04188425EDD00208F4908809F
:105600005AE0A048007860B38A48007848BB8848D0
:10561000007830B38A48B0F900009249B1F900101F
:105620000844994909680844974908600846006891
:1056300006F034FB044622469449954801F032FBBB
:105640009348008C7D4908808F480068002833DA31
:105650007B48B0F900000A282EDA0120884908703A
:105660002AE08C48007838B38B48007820BB70481B
:10567000007808B37248B0F900007A49B1F9001017
:1056800008448149096808447F4908600846006861
:1056900006F004FB044622468049814801F002FBE3
:1056A0007F48008C654908807748006810F5FA6FDC
:1056B00002DA01207B4908705D48007830B1664805
:1056C000007818B100205D49088036E0584800781D
:1056D00058B96148007840B100205F4908705948C6
:1056E000008800B25549088027E06A48007870B108
:1056F0004F48007858B90020664908705148008822
:1057000000B24E49088000206349087015E04848FF
:10571000007890B94748007810B95A48007860B1CD
:105720005248007848B9002042490870554908702D
:105730004448008800B2414908803E48007800286B
:1057400012D05948007800280ED158480068B0F5AA
:10575000966F0AD9012054490870002054490870F6
:10576000474908703C490870D1E03B48007810B9BF
:1057700043480078B0B33249B1F90010394AB2F960
:105780000020881800EBD0714A4A126802EB6101D0
:10579000484A11601046006806F080FA0446224626
:1057A0004549464801F07EFA2548B0F90000042832
:1057B0001EDA01203E4908704048B0F9200040F24E
:1057C000DC51884201DD084602E03C48B0F9200087
:1057D0003A4908840846B0F920003949884202DA7B
:1057E000084603E009E03548B0F920003349088451
:1057F0003248008C1149088089E02C49096801EB86
:10580000410202EBC10006F061FA044622462D492E
:105810002A4801F047FA0A48B0F90000042870DA73
:10582000012051E056000020100F002096010020BA
:1058300080010020710000208801002076010020F6
:1058400058010020540100208C010020A8020020F3
:10585000000018400000284084010020660000205D
:10586000670000205A0100206C00002094010020F5
:1058700000C00FC5700E00206A00002069000020E3
:10588000AD0100209A00002098010020000048C4CB
:10589000980E0020B60000209C01002000803BC52F
:1058A000C00E0020A401002073000020D0020020C0
:1058B00097010020B001002000002FC5E80E002055
:1058C00024FAFFFF00A07046B1490870B148B0F952
:1058D000200040F2DC51884201DD084602E0AD487C
:1058E000B0F92000AB4908840846B0F92000AA4965
:1058F000884201DA084602E0A648B0F92000A5492E
:105900000884A448008C404200B2A4490880A448FE
:10591000006847F23051884207DAA1480068A1497F
:10592000B1F9001008449E4908609F48007888B388
:105930009E48007870B300209D4908709D4908700A
:105940009D490860924908709C48007818B39C48AB
:10595000008800B2914908809A48006847F24811CF
:10596000884216DD002090490870904908709349DC
:1059700008708B4908600120934908700020934902
:10598000086093490870934908704FF4FA6083499E
:105990000880C1E02EE040F69800804908808E48DB
:1059A00000688049B1F9001008448B490860084636
:1059B000006843F2C82188421BDD00207A49087044
:1059C0007A4908700120854908708548B0F90000BF
:1059D00040F00800824908800020824908707B4915
:1059E00008607748008800B26C49088000206C4944
:1059F000086091E07C480078002848D07B48007817
:105A0000F0B340F2145065490880002178480068DE
:105A100006F070FA14D27748006805F0C7FF044614
:105A20000022754B05F068FD0AD2744890F9000019
:105A3000072805DA71480078401C40B26F490870A9
:105A40006E4890F90000062866DD6A4801686848DB
:105A5000006806F083F90446002106F04BFA5BD299
:105A600000206149087066490870584908605C4820
:105A7000B0F9000040F0080059490880012000E01A
:105A800006E06049087040F214504449088043E041
:105A90004FF4AF604149088000215548006806F086
:105AA00029FA14D25348006805F080FF044600220A
:105AB000554B05F05BFE0AD2504890F900000728CC
:105AC00005DA4E480078401C40B24C4908704B48FB
:105AD00090F9000006281FDD464801684448006828
:105AE00006F03CF90446002106F004F914D2002027
:105AF0003D49087042490870344908603848B0F997
:105B0000000040F008003649088001203D49087037
:105B100040F21450214908803C48006843F698211F
:105B2000884219DA37480078B0B11E48B0F9000051
:105B30003749B1F900100844344909680844334929
:105B400008600846006842F6E061884204DD1C48AF
:105B5000008800B2114908801B480078B8B11C4881
:105B60000078A0B90F48B0F900002949B1F9001038
:105B70000844144909680844124908600846006846
:105B800048F6A041884202DD00200449088070BD2B
:105B900097010020E80E002024FAFFFF7601002084
:105BA000A80100205801002071000020730000208F
:105BB00084010020AD010020B001002094010020EC
:105BC000540100206C000020AC010020980100204E
:105BD0006600002067000020900100209501002051
:105BE000100F00209A0000209C0100209900002046
:105BF0000801002000010020000010C09D010020CD
:105C0000B60000209E01002000001840A0010020E6
:105C10005A0100204548006888B94448001F0068C0
:105C200068B94FF42F604249086042484249086011
:105C300042484349086043484349086042E03B48C2
:105C40000068012811D13948001F006868B940F682
:105C50002820374908603748374908603B483849A9
:105C600008603B48384908602CE03048006898B923
:105C70002E48001F006801280ED14FF416602C49F1
:105C800008602C482C49086032482D4908604FF0C4
:105C900078502D49086015E024480068012811D18A
:105CA0002248001F006801280CD140F698002049C6
:105CB0000860294820490860284821490860284888
:105CC0002149086019480838006838B917480C3865
:105CD000006818B901202349087026E013480838E5
